:03000000020006F5
:03005F0002000399
:0300030002008870
:2000620075B0DE75A0DE7590DE7580DE75B0AD75A0AD7590AD7580AD75B00075A0007590AB
:200082000075800080FE751D00751E0A751C00C3E51C951E5017E51C2412F9E7700BE51CBA
:1300A2002408F9E7FF251DF51D051C80E2851D80020062E3
:06003500E478FFF6D8FD9F
:200013007900E94400601B7A009000B9780175A000E493F2A308B8000205A0D9F4DAF275DA
:02003300A0FF2C
:20003B007800E84400600A790175A000E4F309D8FC7800E84400600C7900900001E4F0A3C3
:04005B00D8FCD9FAFA
:0D00060075811E1200B5E582600302000343
:0400B500758200222E
:00000001FF
